S01700004261736963427261696E426F6172642E7372656357
S113000004C1000021C100001FC100001DC1000087
S11300101BC1000019C1000017C1000015C1000078
S113002013C1000011C100000FC100000DC1000088
S11300300BC1000009C1000020C1000005C100007F
S113004003C1000001C10000FFC00000FDC00000AA
S1130050FCC00000F9C00000F7C00000F5C00000BB
S1130060F3C0000022C1000049C10000EDC000003F
S1130070EBC00000E9C00000E7C00000E5C00000DC
S1130080E3C00000E1C00000DFC00000DDC00000EC
S1130090DBC00000D9C00000D7C00000D5C00000FC
S11300A0D3C00000D1C00000CFC00000CDC000000C
S11300B0CBC00000C9C00000C7C00000C5C000001C
S11300C0C3C00000C1C00000BFC00000BDC000002C
S11300D0BBC00000B9C00000B7C00000B5C000003C
S11300E0B3C00000B1C00000AFC00000ADC000004C
S11300F0ABC00000A9C00000A7C00000A5C000005C
S1130100A3C00000A1C000009FC000009DC000006B
S11301109BC0000099C0000097C0000095C000007B
S113012093C0000091C000008FC000008DC000008B
S11301308BC0000089C0000087C0000085C000009B
S113014083C0000081C000007FC000007DC00000AB
S11301507BC0000079C0000077C0000075C00000BB
S113016073C0000071C000006FC000006DC00000CB
S11301706BC0000069C0000067C0000065C00000DB
S113018063C0000061C000005FC000005DC00000EB
S11301905BC0000059C0000057C0000055C00000FB
S11301A053C0000051C000004FC000004DC000000B
S11301B04BC0000049C0000047C0000045C000001B
S11301C043C0000041C000003FC000003DC000002B
S11301D03BC0000039C0000037C0000035C000003B
S11301E033C0000031C000002FC000002DC000004B
S11301F02BC0000029C0000027C00000BC02D602AA
S1130200C902E302F002FD020A0311241FBECFEF6C
S1130210CDBFDFE3DEBF00E00CBF10E2A0E0B0E240
S1130220E6E4F6E000E00BBF02C007900D92A434B0
S1130230B107D9F720E2A4E4B0E201C01D92A435CD
S1130240B207E1F7FBD0FDC1DBCE1F920F920FB6D0
S11302500F9211240BB60F928F93EF93FF9381E0CB
S1130260E0E4F8E08487FF91EF918F910F900BBE4B
S11302700F900FBE0F901F9018951F920F920FB6FC
S11302800F9211240BB60F928F93EF93FF9381E09B
S1130290E0E0F8E08487FF91EF918F910F900BBE1F
S11302A00F900FBE0F901F9018951F920F920FB6CC
S11302B00F9211240BB60F922F933F934F935F939A
S11302C06F937F938F939F93AF93BF93EF93FF931A
S11302D085E490E219D1FF91EF91BF91AF919F9185
S11302E08F917F916F915F914F913F912F910F90DB
S11302F00BBE0F900FBE0F901F9018951F920F9278
S11303000FB60F9211240BB60F922F933F934F9376
S11303105F936F937F938F939F93AF93BF93EF9369
S1130320FF9385E490E205D1FF91EF91BF91AF91E6
S11303309F918F917F916F915F914F913F912F91F9
S11303400F900BBE0F900FBE0F901F901895E0E416
S1130350F6E088E0818384E0828341E060EA78E02B
S113036085E490E2B4D0E0914520F091462083E00A
S1130370858383818F7C80618383A0EAB8E08FECDE
S113038016968C93169717961C92848180618483A9
S1130390848188608483E0EAF0E0828181608283E2
S11303A00895E0E0F8E024E630E026A337A366E011
S11303B0608353E0518381818063818341E046837C
S11303C08AE090E082A793A782E390E080A791A7B8
S11303D0E0E4F8E026A337A3608351832181206100
S11303E02183468380A791A70895FC0120812223BD
S11303F059F0DC011196E0EAF8E0818185FFFDCF38
S113040020832D912111F9CF089588ED84BF82E0D6
S113041080935000E0E5F0E0818181FFFDCF88ED1D
S113042084BF91E09093400084BFE0E5F0E08081D8
S113043084608083818182FFFDCF0895E6DF87DFBA
S1130440E0E4F6E080EE818383E18183AADFE0EAE1
S1130450F0E0828181608283789485E490E240D0E8
S11304608823D9F385E490E243D0809344208736EF
S1130470A9F018F4823661F01DC0823719F089376B
S113048099F018C080E090E2B0DF80E06CD015C035
S11304908BE090E2AADF82E066D00FC087E190E2B1
S11304A0A4DF81E060D009C084E290E29EDF84E0B2
S11304B05AD003C082E390E298DF2FEF89EF90E0F7
S11304C0215080409040E1F700C00000C6CFFC01FD
S11304D06083718342831486138616861586089575
S11304E0FC012385948581E0291301C080E00895EF
S11304F0FC018485DF01A80FB11D13968C919485AE
S11305009F5F937094870895FC0183858F5F837048
S11305109485A081B1812C91891749F09385DF01DD
S1130520A90FB11D13962C93838781E0089580E071
S11305300895FC0186859585981307C00190F08184
S1130540E02D83818C7F838308958685DF01A80F46
S1130550B11D17968C91A081B1818C9386858F5F94
S113056083708687089590E08730910508F062C013
S1130570FC01E250FF4F5FC0E0E0F8E010A611A6D6
S113058082E390E082A793A7E0E4F8E010A611A626
S11305900895E0E0F8E082E390E080A791A712A636
S11305A013A6E0E4F8E010A611A60895E0E0F8E050
S11305B010A611A612A613A682E390E0E0E4F8E0E8
S11305C080A791A70895E0E0F8E082E390E080A797
S11305D091A782A793A7E0E4F8E010A611A60895D6
S11305E0E0E0F8E010A611A682E390E082A793A7CA
S11305F0E0E4F8E080A791A70895E0E0F8E082E362
S113060090E080A791A782A793A7E0E4F8E080A7F1
S113061091A70895E0E0F8E082E390E082A793A731
S113062089E190E0A0E4B8E098968D939C93999723
S113063010A611A60895EE0FFF1F0590F491E02D6A
S10906401994F894FFCFA9
S1130646526564204C45442E0D0A00426C756520A3
S11306564C45442E0D0A00477265656E204C454490
S11306662E0D0A0059656C6C6F77204C45442E0D8F
S11306760A0043616E277420646F20746861742EC7
S10706860D0A000055
S9030000FC
