:1000000005C1000022C1000020C100001EC1000087
:100010001CC100001AC1000018C1000016C1000078
:1000200014C1000012C1000010C100000EC1000088
:100030000CC100000AC1000021C1000006C100007F
:1000400004C1000002C1000000C10000FEC00000A9
:10005000FDC00000FAC00000F8C00000F6C00000BB
:10006000F4C0000023C100004AC10000EEC000003F
:10007000ECC00000EAC00000E8C00000E6C00000DC
:10008000E4C00000E2C00000E0C00000DEC00000EC
:10009000DCC00000DAC00000D8C00000D6C00000FC
:1000A000D4C00000D2C00000D0C00000CEC000000C
:1000B000CCC00000CAC00000C8C00000C6C000001C
:1000C000C4C00000C2C00000C0C00000BEC000002C
:1000D000BCC00000BAC00000B8C00000B6C000003C
:1000E000B4C00000B2C00000B0C00000AEC000004C
:1000F000ACC00000AAC00000A8C00000A6C000005C
:10010000A4C00000A2C00000A0C000009EC000006B
:100110009CC000009AC0000098C0000096C000007B
:1001200094C0000092C0000090C000008EC000008B
:100130008CC000008AC0000088C0000086C000009B
:1001400084C0000082C0000080C000007EC00000AB
:100150007CC000007AC0000078C0000076C00000BB
:1001600074C0000072C0000070C000006EC00000CB
:100170006CC000006AC0000068C0000066C00000DB
:1001800064C0000062C0000060C000005EC00000EB
:100190005CC000005AC0000058C0000056C00000FB
:1001A00054C0000052C0000050C000004EC000000B
:1001B0004CC000004AC0000048C0000046C000001B
:1001C00044C0000042C0000040C000003EC000002B
:1001D0003CC000003AC0000038C0000036C000003B
:1001E00034C0000032C0000030C000002EC000004B
:1001F0002CC000002AC0000028C00000C502DF0299
:10020000D202EC02F90206031303240311241FBED9
:10021000CFEFCDBFDFE3DEBF00E00CBF10E2A0E018
:10022000B0E2E2E7F6E000E00BBF02C007900D92FB
:10023000AA34B107D9F720E2AAE4B0E201C01D92C6
:10024000AA35B207E1F7FBD012C2DACE1F920F92A5
:100250000FB60F9211240BB60F928F93EF93FF936B
:1002600081E0E0E4F8E08487FF91EF918F910F90B7
:100270000BBE0F900FBE0F901F9018951F920F92FC
:100280000FB60F9211240BB60F928F93EF93FF933B
:1002900081E0E0E0F8E08487FF91EF918F910F908B
:1002A0000BBE0F900FBE0F901F9018951F920F92CC
:1002B0000FB60F9211240BB60F922F933F934F93CB
:1002C0005F936F937F938F939F93AF93BF93EF93BE
:1002D000FF938BE490E221D1FF91EF91BF91AF9119
:1002E0009F918F917F916F915F914F913F912F914E
:1002F0000F900BBE0F900FBE0F901F9018951F927E
:100300000F920FB60F9211240BB60F922F933F93BB
:100310004F935F936F937F938F939F93AF93BF930D
:10032000EF93FF938BE490E20DD1FF91EF91BF919A
:10033000AF919F918F917F916F915F914F913F917D
:100340002F910F900BBE0F900FBE0F901F9018951E
:10035000E0E4F6E088E0818384E0828341E060EAC3
:1003600078E08BE490E2BCD0E0914B20F0914C20FF
:1003700083E0858383818F7C80618383A0EAB8E0FA
:100380008FEC16968C93169717961C928481806139
:100390008483848188608483E0EAF0E082818160E4
:1003A00082830895E0E0F8E024E630E026A337A356
:1003B00066E0608353E0518381818063818341E003
:1003C00046838AE090E082A793A782E390E080A72B
:1003D00091A7E0E4F8E026A337A36083518321814D
:1003E00020612183468380A791A70895FC01208185
:1003F000222359F0DC011196E0EAF8E0818185FFC3
:10040000FDCF20832D912111F9CF089588ED84BF70
:1004100082E080935000E0E5F0E0818181FFFDCF34
:1004200088ED84BF91E09093400084BFE0E5F0E068
:10043000808184608083818182FFFDCF0895E6DF23
:1004400087DFE0E4F6E080EE818383E18183AADF49
:10045000E0EAF0E082818160828378948BE490E22C
:1004600048D08823D9F38BE490E24BD080934A2084
:100470008F3619F128F4823671F0873691F023C057
:10048000823719F0893799F01EC080E090E2AEDF24
:1004900080E072D01BC08BE090E2A8DF82E06CD0DD
:1004A00015C087E190E2A2DF81E066D00FC084E250
:1004B00090E29CDF84E060D009C082E390E296DFA6
:1004C00087E05AD003C089E390E290DF2FEF89EFF5
:1004D00090E0215080409040E1F700C00000BECF86
:1004E000FC01608371834283148613861686158609
:1004F0000895FC012385948581E0291301C080E0E3
:100500000895FC018485DF01A80FB11D13968C911D
:1005100094859F5F937094870895FC0183858F5F16
:1005200083709485A081B1812C91891749F09385BE
:10053000DF01A90FB11D13962C93838781E00895E5
:1005400080E00895FC0186859585981307C0019089
:10055000F081E02D83818C7F838308958685DF0180
:10056000A80FB11D17968C91A081B1818C938685BF
:100570008F5F83708687089590E08830910508F03A
:100580006FC0FC01E250FF4F6CC0E0E0F8E010A645
:1005900011A682E390E082A793A7E0E4F8E010A61A
:1005A00011A60895E0E0F8E082E390E080A791A72B
:1005B00012A613A6E0E4F8E010A611A60895E0E064
:1005C000F8E010A611A612A613A682E390E0E0E4DC
:1005D000F8E080A791A70895E0E0F8E082E390E0DA
:1005E00080A791A782A793A7E0E4F8E010A611A640
:1005F0000895E0E0F8E010A611A682E390E082A75B
:1006000093A7E0E4F8E080A791A70895E0E0F8E080
:1006100082E390E080A791A782A793A7E0E4F8E0A7
:1006200080A791A70895E0E0F8E082E390E082A738
:1006300093A789E190E0A0E4B8E098968D939C930D
:10064000999710A611A60895E0E0F8E012A613A667
:10065000A0E4B8E098961D921C92999710A611A656
:100660000895EE0FFF1F0590F491E02D1994F89472
:02067000FFCFBA
:10067200526564204C45442E0D0A00426C7565207B
:100682004C45442E0D0A00477265656E204C454468
:100692002E0D0A0059656C6C6F77204C45442E0D67
:1006A2000A004F66662E0D0A0043616E27742064AD
:0A06B2006F20746861742E0D0A00B9
:00000001FF
