S01700004261736963427261696E426F6172642E7372656357
S113000004C1000021C100001FC100001DC1000087
S11300101BC1000019C1000017C1000015C1000078
S113002013C1000011C100000FC100000DC1000088
S11300300BC1000009C100002EC1000005C1000071
S113004003C1000001C10000FFC00000FDC00000AA
S11300500AC10000F9C00000F7C00000F5C00000AC
S1130060F3C0000030C1000057C10000EDC0000023
S1130070EBC00000E9C00000E7C00000E5C00000DC
S1130080E3C00000E1C00000DFC00000DDC00000EC
S1130090DBC00000D9C00000D7C00000D5C00000FC
S11300A0D3C00000D1C00000CFC00000CDC000000C
S11300B0CBC00000C9C00000C7C00000C5C000001C
S11300C0C3C00000C1C00000BFC00000BDC000002C
S11300D0BBC00000B9C00000B7C00000B5C000003C
S11300E0B3C00000B1C0000040C1000067C10000FF
S11300F0ABC000008CC10000B3C10000A5C000006B
S1130100A3C00000A1C000009FC000009DC000006B
S11301109BC0000099C0000097C0000095C000007B
S113012093C0000091C000008FC000008DC000008B
S11301308BC0000089C0000087C0000085C000009B
S113014083C0000081C000007FC000007DC00000AB
S11301507BC0000079C0000077C0000075C00000BB
S11301604CC2000073C200006FC00000F4C1000064
S11301701BC2000069C0000067C0000065C0000029
S113018063C0000061C000005FC000005DC00000EB
S11301905BC0000059C0000057C0000055C00000FB
S11301A053C0000051C000004FC000004DC000000B
S11301B04BC0000049C0000047C0000045C000001B
S11301C043C0000041C000003FC000003DC000002B
S11301D03BC0000039C0000037C000006AC1000005
S11301E091C1000031C000002FC000002DC00000EC
S11301F02BC0000029C0000027C00000C004DA049E
S1130200CD04E704F40401050E0511241FBECFEF4D
S1130210CDBFDFE3DEBF00E00CBF10E2A0E0B0E240
S1130220EAE3FBE000E00BBF02C007900D92A032AE
S1130230B107D9F720E2A0E2B0E201C01D92AC37C9
S1130240B207E1F7F5D277C4DBCEE0E8F6E080E16F
S1130250818380E8818380E28183089580E2E0E8FD
S1130260F6E0868308951F920F920FB60F92112421
S11302700BB60F928F93EF93FF9381E0E0E4F8E0E5
S11302808487FF91EF918F910F900BBE0F900FBE5B
S11302900F901F9018951F920F920FB60F92112472
S11302A00BB60F928F93EF93FF9381E0E0E0F8E0B9
S11302B08487FF91EF918F910F900BBE0F900FBE2B
S11302C00F901F9018951F920F920FB60F92112442
S11302D00BB60F922F933F934F935F936F937F933C
S11302E08F939F93AF93BF93EF93FF938CE690E22A
S11302F00FD3FF91EF91BF91AF919F918F917F9118
S11303006F915F914F913F912F910F900BBE0F9082
S11303100FBE0F901F9018951F920F920FB60F9259
S113032011240BB60F922F933F934F935F936F93C8
S11303307F938F939F93AF93BF93EF93FF938CE639
S113034090E2FBD2FF91EF91BF91AF919F918F917A
S11303507F916F915F914F913F912F910F900BBEC1
S11303600F900FBE0F901F9018951F920F920FB60B
S11303700F9211240BB60F922F933F934F935F93D9
S11303806F937F938F939F93AF93BF93EF93FF9359
S11303908DE590E2BDD2FF91EF91BF91AF919F9116
S11303A08F917F916F915F914F913F912F910F901A
S11303B00BBE0F900FBE0F901F9018951F920F92B7
S11303C00FB60F9211240BB60F922F933F934F93B6
S11303D05F936F937F938F939F93AF93BF93EF93A9
S11303E0FF938DE590E2A9D2FF91EF91BF91AF9178
S11303F09F918F917F916F915F914F913F912F9139
S11304000F900BBE0F900FBE0F901F9018951F9268
S11304100F920FB60F9211240BB60F922F933F93A6
S11304204F935F936F937F938F939F93AF93BF93F8
S1130430EF93FF938EE490E26BD2FF91EF91BF9123
S1130440AF919F918F917F916F915F914F913F9168
S11304502F910F900BBE0F900FBE0F901F90189509
S11304601F920F920FB60F9211240BB60F922F9377
S11304703F934F935F936F937F938F939F93AF9328
S1130480BF93EF93FF938EE490E257D2FF91EF91E5
S1130490BF91AF919F918F917F916F915F914F9198
S11304A03F912F910F900BBE0F900FBE0F901F9096
S11304B018951F920F920FB60F9211240BB60F923C
S11304C02F933F934F935F936F937F938F939F9358
S11304D0AF93BF93EF93FF938FE390E219D2FF9111
S11304E0EF91BF91AF919F918F917F916F915F91A8
S11304F04F913F912F910F900BBE0F900FBE0F9015
S11305001F9018951F920F920FB60F9211240BB6DD
S11305100F922F933F934F935F936F937F938F9398
S11305209F93AF93BF93EF93FF938FE390E205D232
S1130530FF91EF91BF91AF919F918F917F916F91B7
S11305405F914F913F912F910F900BBE0F900FBE73
S11305500F901F9018951F920F920FB60F921124AF
S11305600BB60F922F933F934F935F936F937F93A9
S11305708F939F93AF93BF93EF93FF9380E390E2A6
S1130580C7D1FF91EF91BF91AF919F918F917F91CF
S11305906F915F914F913F912F910F900BBE0F90F0
S11305A00FBE0F901F9018951F920F920FB60F92C7
S11305B011240BB60F922F933F934F935F936F9336
S11305C07F938F939F93AF93BF93EF93FF9380E3B6
S11305D090E2B3D1FF91EF91BF91AF919F918F9131
S11305E07F916F915F914F913F912F910F900BBE2F
S11305F00F900FBE0F901F9018951F920F920FB679
S11306000F9211240BB60F922F933F934F935F9346
S11306106F937F938F939F93AF93BF93EF93FF93C6
S113062081E290E275D1FF91EF91BF91AF919F91DB
S11306308F917F916F915F914F913F912F910F9087
S11306400BBE0F900FBE0F901F9018951F920F9224
S11306500FB60F9211240BB60F922F933F934F9323
S11306605F936F937F938F939F93AF93BF93EF9316
S1130670FF9381E290E261D1FF91EF91BF91AF913D
S11306809F918F917F916F915F914F913F912F91A6
S11306900F900BBE0F900FBE0F901F901895FC018A
S11306A02081222359F0DC011196E0EAFAE08181ED
S11306B085FFFDCF20832D912111F9CF0895C5DD4C
S11306C0CDDDE0E8F6E080E8858380E186832FEFE6
S11306D039EF90E0215030409040E1F700C0000035
S11306E0858325ED2A95F1F700008683F0CFE0E8B5
S11306F0F6E088E0818384E0828341E060EA7AE086
S11307008DE590E2E8D0E0915D20F0915E2083E0F9
S1130710858383818F7C80618383A0EABAE08FEC38
S113072016968C93169717961C9284818061848305
S11307308481886084830895DADF80E090E2AFDF0B
S1130740FFCFE0E4F6E088E0818384E0828341E047
S113075060EA78E08CE690E2BED0E0916C20F09103
S11307606D2083E0858383818F7C80618383A0EA0D
S1130770B8E08FEC16968C93169717961C9284818A
S113078080618483848188608483E0EAF0E08281EC
S1130790816082830895E0E0F8E024E630E026A357
S11307A037A366E0608353E0518381818063818352
S11307B041E046838AE090E082A793A782E390E039
S11307C080A791A7E0E4F8E026A337A360835183D0
S11307D0218120612183468380A791A70895FC018C
S11307E02081222359F0DC011196E0EAF8E08181AE
S11307F085FFFDCF20832D912111F9CF089588ED38
S113080084BF82E080935000E0E5F0E0818181FFC5
S1130810FDCF88ED84BF91E09093400084BFE0E574
S1130820F0E0808184608083818182FFFDCF089520
S1130830CF93DF93CDB7DEB72C97CDBFDEBFDFDF1D
S113084080DF0AD1BE01645F7F4FCE01019610D1D3
S1130850A2DF7894E0EAF0E082818160828302E0A2
S113086011E090917B209130C1F018F0923021F189
S1130870FACF80E07CD08CE690E236D0882389F3EE
S11308808CE690E239D080932020803751F7CE0156
S11308900196A5DF10937B20E4CF84E068D08CE63A
S11308A090E222D08823E9F28CE690E225D08237C8
S11308B0C1F600937B20D5CF812F59D09C859130F0
S11308C039F028F0923029F0933021F0CACF34DF88
S11308D0F6DEFFCFFFCFFC01608371834283148671
S11308E01386168615860895FC012385948581E078
S11308F0291301C080E00895FC018485DF01A80F5D
S1130900B11D13968C9194859F5F9370948708957D
S1130910FC0183858F5F83709485A081B1812C91C4
S1130920891749F09385DF01A90FB11D13962C9304
S1130930838781E0089580E00895FC01868595858C
S1130940981307C00190F081E02D83818C7F83830D
S113095008958685DF01A80FB11D17968C91A0819B
S1130960B1818C9386858F5F83708687089590E02C
S11309708730910508F063C0FC01E250FF4FD5C0F9
S1130980E0E0F8E010A611A682E390E082A793A726
S1130990E0E4F8E010A611A60895E0E0F8E082E3B0
S11309A090E080A791A712A613A6E0E4F8E010A6B1
S11309B011A60895E0E0F8E010A611A612A613A669
S11309C082E390E0E0E4F8E080A791A70895E0E0F6
S11309D0F8E082E390E080A791A782A793A7E0E4E0
S11309E0F8E010A611A60895E0E0F8E010A611A61C
S11309F082E390E082A793A7E0E4F8E080A791A7C0
S1130A000895E0E0F8E082E390E080A791A782A750
S1130A1093A7E0E4F8E080A791A70895E0E0F8E068
S1130A2082E390E082A793A789E190E0A0E4B8E094
S1130A3098968D939C93999710A611A60895E0E03B
S1130A40F8E012A613A6A0E4B8E098961D921C92B2
S1130A50999710A611A60895E0E4F6E080E2818358
S1130A6083E1818380EC828388E1868B878B089580
S1130A70E0E4F6E020852223B4F4208526FD19C0A5
S1130A8012C0E0E4F6E0208526FF1EC02AC0E0E4A0
S1130A90F6E0208526FD2BC036C0E0E4F6E0208594
S1130AA026FF37C00895E0E4F6E020852223CCF445
S1130AB0E8CFFB01108226E0E9E0F0E2DC010190DE
S1130AC00D922A95E1F7089521E0FB01208341E48A
S1130AD052E56DE470E0FC014083518362837383CB
S1130AE00895E0E4F6E0208522238CF60CC022E091
S1130AF0FB01208326E0EFE0F0E2DC0101900D929F
S1130B002A95E1F70895E0E4F6E0208522232CF607
S1130B10089523E0FB0120832BE0E5E1F0E2DC0112
S1130B2001900D922A95E1F70895EE0FFF1F0590AD
S10D0B30F491E02D1994F894FFCF1E
S1130B3A442C73746172740A004452495645005233
S1130B4A4144494F0044454255475F4D4F4445008F
S9030000FC
