:10000000FDC000000DC100000BC1000009C10000CF
:1000100007C1000005C1000003C1000001C10000CC
:10002000FFC00000FDC00000FBC00000F9C00000E0
:10003000F7C00000F5C000000CC10000F1C00000D6
:10004000EFC00000EDC00000EBC00000E9C0000000
:10005000E8C00000E5C00000E3C00000E1C000000F
:10006000DFC00000DDC00000DBC00000D9C0000020
:10007000D7C00000D5C00000D3C00000D1C0000030
:10008000CFC00000CDC00000CBC00000C9C0000040
:10009000C7C00000C5C00000C3C00000C1C0000050
:1000A000BFC00000BDC00000BBC00000B9C0000060
:1000B000B7C00000B5C00000B3C00000B1C0000070
:1000C000AFC00000ADC00000ABC00000A9C0000080
:1000D000A7C00000A5C00000A3C00000A1C0000090
:1000E0009FC000009DC000009BC0000099C00000A0
:1000F00097C0000095C0000093C0000091C00000B0
:100100008FC000008DC000008BC0000089C00000BF
:1001100087C0000085C0000083C0000081C00000CF
:100120007FC000007DC000007BC0000079C00000DF
:1001300077C0000075C0000073C0000071C00000EF
:100140006FC000006DC000006BC0000069C00000FF
:1001500067C0000065C0000063C0000061C000000F
:100160005FC000005DC000005BC0000059C000001F
:1001700057C0000055C0000053C0000051C000002F
:100180004FC000004DC000004BC0000049C000003F
:1001900047C0000045C0000043C0000041C000004F
:1001A0003FC000003DC000003BC0000039C000005F
:1001B00037C0000035C0000033C0000031C000006F
:1001C0002FC000002DC000002BC0000029C000007F
:1001D00027C0000025C0000023C0000021C000008F
:1001E0001FC000001DC000001BC0000019C000009F
:1001F00017C0000015C0000013C0000011241FBE6E
:10020000CFEFCDBFDFE3DEBF00E00CBF20E2A0E018
:10021000B0E201C01D92A430B207E1F756D0E3C0AE
:10022000EFCE1F920F920FB60F9211240BB60F92C2
:100230008F93EF93FF9381E0E0E4F8E08487FF91F0
:10024000EF918F910F900BBE0F900FBE0F901F90EC
:1002500018951F920F920FB60F9211240BB60F92A2
:100260008F93EF93FF9381E0E0E0F8E08487FF91C4
:10027000EF918F910F900BBE0F900FBE0F901F90BC
:100280001895E0E0F8E024E630E026A337A366E026
:10029000608353E0518381818063818341E04683A1
:1002A0008AE090E082A793A782E390E080A791A7DD
:1002B000E0E4F8E026A337A3608351832181206125
:1002C0002183468380A791A70895E0E4F6E080EEBD
:1002D000818383E18183D5DFE0EAF0E08281816080
:1002E00082830F2EFBE48F2E912CA12CB12CF02DAC
:1002F000C0E0D8E000E418E0C0900020D0900120D9
:10030000E0900220F0900320C701B6016F5F7F4F9D
:100310008F4F9F4F609300207093012080930220A5
:1003200090930320A501940120D068A779A7C70165
:10033000B6016E5D7F4F8F4F9F4FA501940115D081
:100340006AA77BA7C701B6016D5B7F4F8F4F9F4F99
:10035000A50194010AD0F80160A771A783ED90E38D
:100360000197F1F700C00000C7CF052E97FB16F4E8
:1003700000940FD057FD05D014D007FC02D046F4EE
:1003800008C050954095309521953F4F4F4F5F4F96
:10039000089590958095709561957F4F8F4F9F4FF1
:1003A0000895A1E21A2EAA1BBB1BFD010DC0AA1FB6
:1003B000BB1FEE1FFF1FA217B307E407F50720F0CE
:1003C000A21BB30BE40BF50B661F771F881F991F49
:1003D0001A9469F760957095809590959B01AC0192
:0A03E000BD01CF010895F894FFCF8E
:00000001FF
