S01700004261736963427261696E426F6172642E7372656357
S1130000FDC000001AC1000018C1000016C10000A4
S113001014C1000012C1000010C100000EC1000094
S11300200CC100000AC1000008C1000006C10000A4
S113003004C1000002C1000019C10000FEC000009C
S1130040FCC00000FAC00000F8C00000F6C00000C8
S1130050F5C00000F2C00000F0C00000EEC00000D7
S1130060ECC0000079C10000A0C10000E6C000009F
S1130070E4C00000E2C00000E0C00000DEC00000F8
S1130080DCC00000DAC00000D8C00000D6C0000008
S1130090D4C00000D2C00000D0C00000CEC0000018
S11300A0CCC00000CAC00000C8C00000C6C0000028
S11300B0C4C00000C2C00000C0C00000BEC0000038
S11300C0BCC00000BAC00000B8C00000B6C0000048
S11300D0B4C00000B2C00000B0C00000AEC0000058
S11300E0ACC00000AAC00000A8C00000A6C0000068
S11300F0A4C00000A2C00000A0C000009EC0000078
S11301009CC000009AC0000098C0000096C0000087
S113011094C0000092C0000090C000008EC0000097
S11301208CC000008AC0000088C0000086C00000A7
S113013084C0000082C0000080C000007EC00000B7
S11301407CC000007AC0000078C0000076C00000C7
S113015074C0000072C0000070C000006EC00000D7
S11301606CC000006AC0000068C0000066C00000E7
S113017064C0000062C0000060C000005EC00000F7
S11301805CC000005AC0000058C0000056C0000007
S113019054C0000052C0000050C000004EC0000017
S11301A04CC000004AC0000048C0000046C0000027
S11301B044C0000042C0000040C000003EC0000037
S11301C03CC000003AC0000038C0000036C0000047
S11301D034C0000032C0000030C000002EC0000057
S11301E02CC000002AC0000028C0000026C0000067
S11301F024C0000022C0000020C0000011241FBE43
S1130200CFEFCDBFDFE3DEBF00E00CBF10E2A0E024
S1130210B0E2ECEDF5E000E00BBF02C007900D92F8
S1130220A631B107D9F720E2A6E1B0E201C01D92E0
S1130230A932B207E1F7FBD0CFC1E2CE1F920F92F1
S11302400FB60F9211240BB60F928F93EF93FF9377
S113025081E0E0E4F8E08487FF91EF918F910F90C3
S11302600BBE0F900FBE0F901F9018951F920F9208
S11302700FB60F9211240BB60F928F93EF93FF9347
S113028081E0E0E0F8E08487FF91EF918F910F9097
S11302900BBE0F900FBE0F901F901895E0E4F6E090
S11302A088E0818384E0828341E060EA78E08AE147
S11302B090E21CD1E0911A20F0911B2083E0858309
S11302C083818F7C80618383A0EAB8E08FEC1696EB
S11302D08C93169717961C92848180618483848101
S11302E088608483E0EAF0E08281816082830895FB
S11302F0E0E0F8E024E630E026A337A366E060837C
S113030053E0518381818063818341E046838AE0A5
S113031090E082A793A782E390E080A791A7E0E40E
S1130320F8E026A337A360835183218120612183D0
S1130330468380A791A70895FC012081222359F0C8
S1130340DC011196E0EAF8E0818185FFFDCF20838E
S11303502D912111F9CF08951F920F920FB60F928C
S113036011240BB60F922F933F934F935F936F9388
S11303707F938F939F93AF93BF93EF93FF938AE100
S113038090E2BDD0FF91EF91BF91AF919F918F917A
S11303907F916F915F914F913F912F910F900BBE81
S11303A00F900FBE0F901F9018951F920F920FB6CB
S11303B00F9211240BB60F922F933F934F935F9399
S11303C06F937F938F939F93AF93BF93EF93FF9319
S11303D08AE190E2A9D0FF91EF91BF91AF919F91F3
S11303E08F917F916F915F914F913F912F910F90DA
S11303F00BBE0F900FBE0F901F90189588ED84BF11
S113040082E080935000E0E5F0E0818181FFFDCF40
S113041088ED84BF91E09093400084BFE0E5F0E074
S1130420808184608083818182FFFDCF0895E6DF2F
S113043035DFE0E4F6E080EE818383E1818358DFF9
S1130440E0EAF0E082818160828378940F2EFBE4FD
S11304508F2E912CA12CB12CF02DC0E0D8E000E41B
S113046018E0C0901620D0901720E0901820F0904B
S11304701920260137012FEF421A520A620A720A22
S113048040921620509217206092182070921920E2
S113049080E090E251DF81E190E24EDFC301B201DE
S11304A0A50194015BD068A779A7C701B6016E5D69
S11304B07F4F8F4F9F4FA501940150D06AA77BA710
S11304C0C701B6016D5B7F4F8F4F9F4FA50194010C
S11304D045D0F80160A771A7FFEF23ED80E3F15049
S11304E020408040E1F700C00000BBCFFC016083E6
S11304F07183428314861386168615860895FC013B
S113050083858F5F83709485A081B1812C91891735
S113051049F09385DF01A90FB11D13962C938387AE
S113052081E0089580E00895FC01868595859813FF
S113053007C00190F081E02D83818C7F838308952F
S11305408685DF01A80FB11D17968C91A081B1811A
S11305508C9386858F5F837086870895052E97FB1D
S113056016F400940FD057FD05D014D007FC02D028
S113057046F408C050954095309521953F4F4F4F14
S11305805F4F089590958095709561957F4F8F4F3B
S11305909F4F0895A1E21A2EAA1BBB1BFD010DC09B
S11305A0AA1FBB1FEE1FFF1FA217B307E407F5071F
S11305B020F0A21BB30BE40BF50B661F771F881FFB
S11305C0991F1A9469F760957095809590959B0191
S10F05D0AC01BD01CF010895F894FFCFE9
S11305DC49443A2041726D436F6E74726F6C0D0A0C
S10905EC0048693A2000FA
S9030000FC
