S01700004261736963427261696E426F6172642E7372656357
S113000004C1000021C100001FC100001DC1000087
S11300101BC1000019C1000017C1000015C1000078
S113002013C1000011C100000FC100000DC1000088
S11300300BC1000009C1000045C1000005C100005A
S113004003C1000001C10000FFC00000FDC00000AA
S113005021C10000F9C00000F7C00000F5C0000095
S1130060F3C0000046C2000045C10000EDC000001E
S1130070EBC00000E9C00000E7C00000E5C00000DC
S1130080E3C00000E1C00000DFC00000DDC00000EC
S1130090DBC00000D9C00000D7C00000D5C00000FC
S11300A0D3C00000D1C00000CFC00000CDC000000C
S11300B0CBC00000C9C00000C7C00000C5C000001C
S11300C0C3C00000C1C00000BFC00000BDC000002C
S11300D0BBC00000B9C00000B7C00000B5C000003C
S11300E0B3C00000B1C0000064C200008BC20000B5
S11300F0ABC00000B0C20000D7C20000A5C0000021
S1130100A3C00000A1C000009FC000009DC000006B
S11301109BC0000099C0000097C0000095C000007B
S113012093C0000091C000008FC000008DC000008B
S11301308BC0000089C0000087C0000085C000009B
S113014083C0000081C000007FC000007DC00000AB
S11301507BC0000079C0000077C0000075C00000BB
S113016070C3000097C300006FC0000018C30000F4
S11301703FC3000069C0000067C0000065C0000004
S113018063C0000061C000005FC000005DC00000EB
S11301905BC0000059C0000057C0000055C00000FB
S11301A053C0000051C000004FC000004DC000000B
S11301B04BC0000049C0000047C0000045C000001B
S11301C043C0000041C000003FC000003DC000002B
S11301D03BC0000039C0000037C000008EC20000E0
S11301E0B5C2000031C000002FC000002DC00000C7
S11301F02BC0000029C0000027C0000005051F0512
S113020012052C0539054605530511241FBECFEFF1
S1130210CDBFDFE3DEBF00E00CBF10E2A0E0B0E240
S1130220EEEDFBE000E00BBF02C007900D92A4329C
S1130230B107D9F720E2A4E2B0E201C01D92A339CC
S1130240B207E1F7FDD0C9C4DBCEE0E8F6E080E810
S1130250858380E186832FEF39EF90E02150304091
S11302609040E1F700C00000858325ED2A95F1F761
S113027000008683F0CFE0E8F6E080E1818380E847
S1130280818380E281830895F6DF80E2E0E8F6E08E
S1130290868308951F920F920FB60F9211240BB606
S11302A00F928F93EF93FF9381E0E0E4F8E084876B
S11302B0FF91EF918F910F900BBE0F900FBE0F9097
S11302C01F9018951F920F920FB60F9211240BB620
S11302D00F928F93EF93FF9381E0E0E0F8E084873F
S11302E0FF91EF918F910F900BBE0F900FBE0F9067
S11302F01F9018951F920F920FB60F9211240BB6F0
S11303000F922F933F934F935F936F937F938F93AA
S11303109F93AF93BF93EF93FF9389E290E252D3FD
S1130320FF91EF91BF91AF919F918F917F916F91C9
S11303305F914F913F912F910F900BBE0F900FBE85
S11303400F901F901895E0E4F6E088E0818384E044
S1130350828341E060EA78E089E290E201D3E091AF
S11303602920F0912A2083E0858383818F7C80611A
S11303708383A0EAB8E08FEC16968C9316971796B1
S11303801C92848180618483848188608483E0EA10
S1130390F0E08281816082830895E0E0F8E024E661
S11303A030E026A337A366E0608353E05183818164
S11303B08063818341E046838AE090E082A793A72B
S11303C082E390E080A791A7E0E4F8E026A337A3B6
S11303D060835183218120612183468380A791A773
S11303E00895FC012081222359F0DC011196E0EAF2
S11303F0F8E0818185FFFDCF20832D912111F9CF74
S11304000895E0E5F0E08BEC82838081886080834E
S1130410818183FFFDCF88ED84BFE0E5F0E082ECCD
S11304208583808180618083818184FFFDCF88ED15
S113043084BFE0E4F0E0108284BF84E08083089508
S1130440CF93DF93CDB7DEB72B97CDBFDEBFD9DF18
S11304507ADF47D367E270E2CE0101964ED39DDF87
S1130460789493D01092282002E011E090912420F7
S11304709130C1F018F0923021F1FACF80E0BCD273
S113048089E290E276D2882389F389E290E279D2F4
S113049080932520803751F7CE010196A2DF109377
S11304A02420E4CF84E0A8D289E290E262D28823B7
S11304B0E9F289E290E265D28237C1F60093242002
S11304C0D5CF812F99D21093282090912720913055
S11304D049F028F0923049F0933051F0C7CF03D25D
S11304E038D2FECFD1DEB1DEFECF39D237D2FECF45
S11304F0FFCF1F920F920FB60F9211240BB60F92DB
S11305002F933F934F935F936F937F938F939F9317
S1130510AF93BF93CF93DF93EF93FF9389E290E27E
S11305203CD280912820882391F089E290E221D264
S1130530882369F0C091472081E08C0F8093472085
S1130540D0E089E290E21DD2C85CDF4D88839091AF
S1130550472080912620981303C089E290E22AD391
S1130560FF91EF91DF91CF91BF91AF919F918F91C7
S11305707F916F915F914F913F912F910F900BBE9F
S11305800F900FBE0F901F901895809127208130F7
S113059041F018F0823049F008958AE080932620D3
S11305A008958AE08093262008958AE08093262087
S11305B008951F920F920FB60F9211240BB60F924B
S11305C02F933F934F935F936F937F938F939F9357
S11305D0AF93BF93EF93FF9384E890E2DED1FF9152
S11305E0EF91BF91AF919F918F917F916F915F91A7
S11305F04F913F912F910F900BBE0F900FBE0F9014
S11306001F9018951F920F920FB60F9211240BB6DC
S11306100F922F933F934F935F936F937F938F9397
S11306209F93AF93BF93EF93FF9384E890E2CAD173
S1130630FF91EF91BF91AF919F918F917F916F91B6
S11306405F914F913F912F910F900BBE0F900FBE72
S11306500F901F9018951F920F920FB60F921124AE
S11306600BB60F922F933F934F935F936F937F93A8
S11306708F939F93AF93BF93EF93FF9385E790E29C
S11306808CD1FF91EF91BF91AF919F918F917F9109
S11306906F915F914F913F912F910F900BBE0F90EF
S11306A00FBE0F901F9018951F920F920FB60F92C6
S11306B011240BB60F922F933F934F935F936F9335
S11306C07F938F939F93AF93BF93EF93FF9385E7AC
S11306D090E278D1FF91EF91BF91AF919F918F916B
S11306E07F916F915F914F913F912F910F900BBE2E
S11306F00F900FBE0F901F9018951F920F920FB678
S11307000F9211240BB60F922F933F934F935F9345
S11307106F937F938F939F93AF93BF93EF93FF93C5
S113072086E690E23AD1FF91EF91BF91AF919F910C
S11307308F917F916F915F914F913F912F910F9086
S11307400BBE0F900FBE0F901F9018951F920F9223
S11307500FB60F9211240BB60F922F933F934F9322
S11307605F936F937F938F939F93AF93BF93EF9315
S1130770FF9386E690E226D1FF91EF91BF91AF916E
S11307809F918F917F916F915F914F913F912F91A5
S11307900F900BBE0F900FBE0F901F9018951F92D5
S11307A00F920FB60F9211240BB60F922F933F9313
S11307B04F935F936F937F938F939F93AF93BF9365
S11307C0EF93FF9387E590E2E8D0FF91EF91BF911B
S11307D0AF919F918F917F916F915F914F913F91D5
S11307E02F910F900BBE0F900FBE0F901F90189576
S11307F01F920F920FB60F9211240BB60F922F93E4
S11308003F934F935F936F937F938F939F93AF9394
S1130810BF93EF93FF9387E590E2D4D0FF91EF91DC
S1130820BF91AF919F918F917F916F915F914F9104
S11308303F912F910F900BBE0F900FBE0F901F9002
S113084018951F920F920FB60F9211240BB60F92A8
S11308502F933F934F935F936F937F938F939F93C4
S1130860AF93BF93EF93FF9388E490E296D0FF9108
S1130870EF91BF91AF919F918F917F916F915F9114
S11308804F913F912F910F900BBE0F900FBE0F9081
S11308901F9018951F920F920FB60F9211240BB64A
S11308A00F922F933F934F935F936F937F938F9305
S11308B09F93AF93BF93EF93FF9388E490E282D02A
S11308C0FF91EF91BF91AF919F918F917F916F9124
S11308D05F914F913F912F910F900BBE0F900FBEE0
S11308E00F901F9018950895FC012081222359F040
S11308F0DC011196E0EAFAE0818185FFFDCF2083D7
S11309002D912111F9CF0895E0E8F6E088E0818384
S113091084E0828341E060EA7AE084E890E220D0D7
S1130920E0918420F091852083E0858383818F7C0E
S113093080618383A0EABAE08FEC16968C931697B5
S113094017961C9284818061848384818860848367
S11309500895DADF80E090E2C7DFFFCF08950895BD
S1130960FC01608371834283148613861686158680
S11309700895FC012385948581E0291301C080E05A
S11309800895FC018485DF01A80FB11D13968C9195
S113099094859F5F937094870895FC0183858F5F8E
S11309A083709485A081B1812C91891749F0938536
S11309B0DF01A90FB11D13962C93838781E008955D
S11309C080E00895FC0186859585981307C0019001
S11309D0F081E02D83818C7F838308958685DF01F8
S11309E0A80FB11D17968C91A081B1818C93868537
S11309F08F5F83708687089590E08730910508F0B3
S1130A0063C0FC01E250FF4FE2C0E0E0F8E010A652
S1130A1011A682E390E082A793A7E0E4F8E010A691
S1130A2011A60895E0E0F8E082E390E080A791A7A2
S1130A3012A613A6E0E4F8E010A611A60895E0E0DB
S1130A40F8E010A611A612A613A682E390E0E0E453
S1130A50F8E080A791A70895E0E0F8E082E390E051
S1130A6080A791A782A793A7E0E4F8E010A611A6B7
S1130A700895E0E0F8E010A611A682E390E082A7D2
S1130A8093A7E0E4F8E080A791A70895E0E0F8E0F8
S1130A9082E390E080A791A782A793A7E0E4F8E01F
S1130AA080A791A70895E0E0F8E082E390E082A7B0
S1130AB093A789E190E0A0E4B8E098968D939C9385
S1130AC0999710A611A60895E0E0F8E012A613A6DF
S1130AD0A0E4B8E098961D921C92999710A611A6CE
S1130AE00895E0E4F6E080E2818383E1818380EC91
S1130AF0828388E1868B878B0895E0E4F6E0208585
S1130B002223B4F4208526FD19C012C0E0E4F6E0E7
S1130B10208526FF1EC02AC0E0E4F6E0208526FDDD
S1130B202BC036C0E0E4F6E0208526FF37C00895E8
S1130B30E0E4F6E020852223CCF4E8CFFB01108228
S1130B402AE0E9E0F0E2DC0101900D922A95E1F758
S1130B50089521E0FB01208341E452E56DE470E057
S1130B60FC0140835183628373830895E0E4F6E0DB
S1130B70208522238CF60CC022E0FB01208326E092
S1130B80E3E1F0E2DC0101900D922A95E1F708958A
S1130B90E0E4F6E0208522232CF6089523E0FB010F
S1130BA020832BE0E9E1F0E2DC0101900D922A952B
S1130BB0E1F70895CF93DF93EC0102C0CE01E1DEAB
S1130BC0CE01D7DE8111FACFDF91CF910895EE0FD8
S1110BD0FF1F0590F491E02D1994F894FFCFC7
S1130BDE442C73746172740A0044524956455F433F
S1130BEE415000524144494F0044454255475F4DE0
S1070BFE4F44450017
S9030000FC
